:020000040800F2
:1000000000200020010F0008A90C0008AF0C000818
:1000100000000000000000000000000000000000E0
:10002000000000000000000000000000B50C000807
:100030000000000000000000BF0C0008C90C000810
:10004000510F000800000000510F0008510F000878
:10005000510F0008510F0008510F0008510F000800
:1000600000000000510F0008510F0008510F000858
:10007000510F0008D90C0008510F000800000000C3
:10008000F10C00080000000000000000510F000803
:1000900000000000510F0008510F0008510F000828
:1000A000510F0008510F0008510F0008510F0008B0
:0800B000510F000800000000E0
:1000B80010B5064C2378002B07D1054B002B02D036
:1000C800044800E000BF0123237010BD1000002089
:1000D8000000000084280008044B10B5002B03D052
:1000E8000349044800E000BF10BDC04600000000FE
:1000F8001400002084280008002243088B4274D38F
:1001080003098B425FD3030A8B4244D3030B8B4210
:1001180028D3030C8B420DD3FF22090212BA030C19
:100128008B4202D31212090265D0030B8B4219D3FA
:1001380000E0090AC30B8B4201D3CB03C01A52411A
:10014800830B8B4201D38B03C01A5241430B8B4262
:1001580001D34B03C01A5241030B8B4201D30B034B
:10016800C01A5241C30A8B4201D3CB02C01A524172
:10017800830A8B4201D38B02C01A5241430A8B4235
:1001880001D34B02C01A5241030A8B4201D30B021E
:10019800C01A5241CDD2C3098B4201D3CB01C01A38
:1001A800524183098B4201D38B01C01A5241430942
:1001B8008B4201D34B01C01A524103098B4201D330
:1001C8000B01C01A5241C3088B4201D3CB00C01A9D
:1001D800524183088B4201D38B00C01A5241430815
:1001E8008B4201D34B00C01A5241411A00D201463A
:1001F800524110467047FFE701B5002000F006F8AD
:1002080002BDC0460029F7D076E770477047C04660
:1002180080B500AF094B180000F0CEF8084B180065
:1002280000F0CAF8054B180000F0CEFC044B18008B
:1002380000F0CAFCC046BD4680BDC0463000002064
:100248003001002090B587B006AF564A5649574846
:1002580008230493534B039302230293514B0193B6
:10026800012300931300402200F0DCFA4E4C802357
:100278009A004D494D4880235B000093230000F00D
:1002880009FB494C80239A01474948488023DB01F0
:100298000093230000F024FB434A434943480823C2
:1002A8000293414B0193102300931300202200F086
:1002B800EAFB3D4C80231A02A023D9053C48802341
:1002C80004933C4B039302230293374B019301237E
:1002D8000093230000F0A6FA364AA023D905344833
:1002E80080239B0100931300012200F0D3FAA0237E
:1002F800DB05A022D1052E4840220092802200F082
:10030800EFFAA023DC0580235A01A023D905284849
:100318008023DB000293A023DB05019380231B01CC
:100328000093230000F0AFFB1E4B012204211800AC
:1003380001F015F91C4B01220421180001F00FF9F6
:100348001A4B9C229858194BA0229B5A012219003B
:1003580001F005F9164B9C229858154BA0229B5A80
:100368000122190001F0FBF8012000F075FE0F4B87
:10037800842298580D4B88229B5A0122190001F0BB
:10038800EEF80B4B84229858094B88229B5A01227D
:10039800190001F0E4F8012000F05EFEC046BD46F9
:1003A80001B090BD000C0050000400503000002047
:1003B800300100200008005080B582B000AF78609E
:1003C8007B68CC33180000F0BDFA0300012B02D083
:1003D800022B0BD011E07B68E2229B5C002B0BD137
:1003E8007B680121180000F02AFB05E07B680021EA
:1003F800180000F024FB00E0C0467B68E4331800D6
:1004080000F0A0FA0300012B02D0022B0BD011E060
:100418007B68FA229B5C002B0BD17B6802211800B9
:1004280000F00DFB05E07B680021180000F007FBD9
:1004380000E0C0467B68CC33180000F0BFFA030028
:10044800012B09D17B685B78012B07D17B680021E0
:10045800180000F0F4FA01E0C04600E0C0467B68EE
:10046800E433180000F0AAFA0300012B09D17B68D5
:100478005B78022B07D17B680021180000F0DFFAB7
:1004880001E0C04600E0C046C046BD4602B080BD9F
:1004980090B58BB000AF14243B19180014231A0030
:1004A800002102F0E3F9704B5A6B6F4B04210A43A9
:1004B8005A636D4B5B6B042213403B613B696A4B8B
:1004C8005A6B694B01210A435A63674B5B6B0122E4
:1004D8001340FB60FB68644B5A6B634B02210A4371
:1004E8005A63614B5B6B02221340BB60BB685E4B77
:1004F8005A6B5D4B08210A435A635B4B5B6B0822BE
:1005080013407B607B68594B00223B21180001F0A7
:1005180026F8564B01224421180001F020F8544BCC
:1005280001228021180001F01AF8E0235901A023C4
:10053800DB050022180001F012F880231902A0231D
:10054800DB050122180001F00AF84A4B00220321BA
:10055800180001F004F8474B01220C21180000F0A4
:10056800FEFF3B19802292011A603B1900225A6053
:100578003B1900229A603B193D4A1900100000F00F
:100588006DFE3B19C1221A603B1900225A603B19C3
:1005980000229A603A19A023DB051100180000F028
:1005A8005DFE3B197F221A603B1901225A603B19F4
:1005B80000229A603B190022DA603B192B4A190085
:1005C800100000F04BFE21007B18C622D2011A60F1
:1005D8000C003B1900225A603B1900229A603B1913
:1005E800224A1900100000F039FE3B1980221A60D7
:1005F8003B1901225A603B1900229A603B190022DC
:10060800DA603B191A4A1900100000F027FE210091
:100618007B189C2212021A600C003B1901225A60B6
:100628003B1900229A603B190022DA603A19A0238C
:10063800DB051100180000F011FE21007B180F22C5
:100648001A607B1801225A607B1800229A607B1876
:100658000022DA607B18074A1900100000F0FEFD3E
:10066800C046BD460BB090BD0010024000040050CB
:1006780000080050000C005080B582B000AF7860D0
:100688007B681B680C4A934206D17A680B4B1100B1
:10069800180000F059FA0AE07B681B68084A934280
:1006A80005D17A68074B1100180000F04DFAC046D2
:1006B800BD4602B080BDC046002C0140300000207D
:1006C800000400403001002080B500AF00F03EFC7F
:1006D80000F02EF8FFF7DCFE00F018FB00F072FBCC
:1006E8000F4B1B68022252421A610D4B180001F091
:1006F800A1FC0C4B1B68022252421A61094B1800DC
:1007080001F098FCFFF79EFD074B1800FFF754FE19
:10071800064B1800FFF750FEFFF77AFDFCE7C046CE
:10072800300200207C020020300000203001002030
:1007380090B593B000AF14243B19180034231A0065
:10074800002102F093F83B1D180010231A00002125
:1007580002F08CF880239B00180000F039FF3B1949
:1007680002221A603B1980225200DA603B190022EB
:100778001A613B1940225A613B190022DA613B1980
:10078800180000F065FF031E01D000F019F83B1DAA
:1007980007221A603B1D00225A603B1D00229A6006
:1007A8003B1D0022DA603B1D0021180001F060FAB1
:1007B800031E01D000F004F8C046BD4613B090BD3A
:1007C80080B500AF72B6C046FEE780B582B000AF14
:1007D80078607B6801221A707B6801225A70C046D3
:1007E800BD4602B080BD80B582B000AF78607B683E
:1007F80002221A707B6802225A70C046BD4602B0B7
:1008080080BD80B582B000AF78607B6800221A7026
:100818007B6800225A707B6800229A67C046BD46F2
:1008280002B080BD80B584B000AFF860B9603B60AD
:10083800BB1D1A80FB688421BA685A50FB68BA1D30
:10084800882112885A52FB688C213A685A50FA68F3
:100858001823FB1890211B885352FB689421FA69CE
:100868005A50FB682022BA18982112885A52FB68FD
:1008780000225A70FB680022DA66FB68E222002137
:100888009954FB68FA2200219954C046BD4604B029
:1008980080BD000080B584B000AFF860B9603B60EF
:1008A800BB1D1A80FB68CC21BA685A50FB68BA1D78
:1008B800D02112885A52FB68E4213A685A50FA68E3
:1008C8001823FB18E8211B885352FB687C22034934
:1008D8009952C046BD4604B080BDC0461F4E0000B8
:1008E80080B584B000AFF860B9603B60BB1D1A806A
:1008F800FB68D421BA685A50FB68BA1DD8211288FF
:100908005A52FB68EC213A685A50FA681823FB18C7
:10091800F0211B885352FB68DA2201219954FB68A5
:10092800E22200219954FB68F22201219954FB68C4
:10093800FA2200219954FB680022DA66C046BD46B7
:1009480004B080BD90B585B000AF78600F243B1926
:1009580000221A707B681A687B689B88190010004F
:1009680000F0E0FD03001A007B689B799A421ED0D4
:100978007B681A687B689B881900100000F0D2FD1C
:100988000300012B03D13B1901221A7003E00F2346
:10099800FB1802221A707B681A687B689B8819000A
:1009A800100000F0BFFD03001A007B689A710F2346
:1009B800FB181B781800BD4605B090BD90B585B0F2
:1009C80000AF78600F243B1900221A707B689A6880
:1009D8007B689B891900100000F0A4FD03001A0031
:1009E8007B689B7B9A4223D07B689A687B689B894B
:1009F8001900100000F096FD031E06D17B68012245
:100A08009A753B1901221A7006E07B6800229A75D4
:100A18000F23FB1802221A707B689A687B689B89EF
:100A28001900100000F07EFD03001A007B689A731D
:100A38000F23FB181B781800BD4605B090BD80B584
:100A480082B000AF78600A00FB1C1A70FB1C1B7890
:100A5800022B0FD013DC002B02D0012B05D00EE0A7
:100A68007B681800FFF7CDFE09E07B681800FFF7E8
:100A7800ACFE04E07B681800FFF7B5FEC046C04630
:100A8800BD4602B080BD80B584B000AFF860B960E3
:100A98003B60BB1D1A80FB68A421BA685A50FB68EA
:100AA800BA1DA82112885A52FB68AC213A685A50DC
:100AB800FA6818203B18B0211B885352FB68B421F0
:100AC8003A685A50FA683B18B8211B885352C046F6
:100AD800BD4604B080BD000080B582B000AF78602C
:100AE80039607B687E229B5A013399B27B687E22EB
:100AF80099527B687E229B5A1E2B1ED97B687C22CA
:100B08009B5A104A934214D97B687C229B5AF53B26
:100B1800FF3B99B27B687C2299527B687C229A5A67
:100B28003B681B68DA627B687C229B5A1A003B6828
:100B3800DA607B687E2200219952C046BD4602B029
:100B480080BDC046AF36000080B582B000AF786087
:100B580039607B685B78002B10D07B6894229A58A8
:100B68007B6898215B5A1900100000F015FD3A685F
:100B78007B6811001800FFF7AFFF05E03A687B6853
:100B88001100180000F004F8C046BD4602B080BD50
:100B980080B582B000AF786039607B687C220949F3
:100BA80099527B687C229A5A3B681B68DA627B6898
:100BB8007C229B5A1A003B68DA60C046BD4602B0E8
:100BC80080BDC0461F4E000080B582B000AF78607F
:100BD8007B681B78022B25D039DC002B02D0012B37
:100BE8000BD034E07B68842298587B6888229B5A13
:100BF8000122190000F0B3FC29E07B688C22985888
:100C08007B6890229B5A0022190000F0A8FC7B68A0
:100C1800842298587B6888229B5A0022190000F089
:100C28009EFC14E07B688C2298587B6890229B5A23
:100C38000122190000F093FC7B68842298587B6895
:100C480088229B5A0022190000F089FCC046C04641
:100C5800BD4602B080BD000080B582B000AF0F4B2A
:100C68001A6C0E4B01210A431A640C4B1B6C0122AF
:100C780013407B607B68094BDA6B084B8021490580
:100C88000A43DA63054BDA6B80235B0513403B604C
:100C98003B68C046BD4602B080BDC0460010024059
:100CA80080B500AFFEE780B500AFFEE780B500AFC6
:100CB800C046BD4680BD80B500AFC046BD4680BDBC
:100CC80080B500AF00F0ACF9C046BD4680BD00005D
:100CD80080B500AF034B180001F0FAF9C046BD46D5
:100CE80080BDC0463002002080B500AF034B18001D
:100CF80001F0EEF9C046BD4680BDC0467C0200202A
:100D080080B500AFC046BD4680BD000080B588B044
:100D180000AF1023FB18180010231A00002101F05F
:100D2800A5FD3B1D18000C231A00002101F09EFDB3
:100D3800214B224A1A60204B00225A601E4B002287
:100D48009A601D4B1E4ADA601B4B00221A611A4B2F
:100D580000225A61184B00229A61174B180001F0C3
:100D680011F9031E01D0FFF72BFD10217B188022FB
:100D780052011A607A18104B1100180001F0DAFAC3
:100D8800031E01D0FFF71CFD3B1D00221A603B1D0E
:100D980000225A603B1D00229A603A1D064B110042
:100DA800180001F0C5FC031E01D0FFF709FDC0467D
:100DB800BD4608B080BDC04630020020002C01406E
:100DC8001F4E000080B588B000AF1023FB18180034
:100DD80010231A00002101F049FD3B1D18000C23C7
:100DE8001A00002101F042FD1E4B1F4A1A601D4BDC
:100DF80000225A601B4B00229A601A4B1B4ADA6089
:100E0800184B00221A61174B00229A61154B1800E3
:100E180001F0B8F8031E01D0FFF7D2FC10217B18AF
:100E2800802252011A607A180E4B1100180001F046
:100E380081FA031E01D0FFF7C3FC3B1D00221A6094
:100E48003B1D00229A603A1D064B1100180001F064
:100E58006FFC031E01D0FFF7B3FCC046BD4608B0C7
:100E680080BDC0467C020020000400401F4E0000E8
:100E780080B584B000AF78607B681B681B4A9342DA
:100E880016D11B4B1A6C1A4B802109010A431A64AC
:100E9800174B1A6C80231B011340FB60FB68002270
:100EA80000210D2000F0A8F90D2000F0BAF918E093
:100EB8007B681B680F4A934213D10D4BDA6B0C4BBE
:100EC80002210A43DA630A4BDB6B02221340BB6040
:100ED800BB6800220021102000F08EF9102000F0DD
:100EE800A0F9C046BD4604B080BDC046002C0140F4
:100EF80000100240000400400D488546FFF700FF3F
:100F08000C480D490D4A002302E0D458C45004335C
:100F1800C4188C42F9D30A4A0A4C002301E0136032
:100F28000432A242FBD301F07DFCFFF7CDFBFEE7C4
:100F380000200020000000200C000020E428000809
:100F480010000020CC020020FEE7000080B582B02F
:100F580000AFFB1D00221A700B4B1A680A4B802148
:100F680049000A431A60032000F010F8031E03D05A
:100F7800FB1D01221A7001E0FFF76EFEFB1D1B78B6
:100F88001800BD4602B080BD0020024090B585B073
:100F980000AF78600F23FB1800221A701D4B1B78D6
:100FA800002B2BD01C4B1C681A4B1B781900FA23FA
:100FB8009800FFF7A1F8030019002000FFF79CF83C
:100FC8000300180000F03DF9031E12D17B68032BC3
:100FD8000AD8796801235B420022180000F00CF956
:100FE8000E4B7A681A600DE00F23FB1801221A7065
:100FF80008E00F23FB1801221A7003E00F23FB18E7
:1010080001221A700F23FB181B781800BD4605B083
:1010180090BDC04608000020000000200400002009
:1010280080B500AF054B1B781A00054B1B68D2181A
:10103800034B1A60C046BD4680BDC046080000206C
:10104800C802002080B500AF024B1B681800BD46DF
:1010580080BDC046C802002080B584B000AF78606B
:10106800FFF7F0FF0300BB607B68FB60FB680133A0
:1010780005D00A4B1B781A00FB689B18FB60C0461A
:10108800FFF7E0FF0200BB68D31AFA689A42F7D864
:10109800C046C046BD4604B080BDC046080000201A
:1010A80080B582B000AF0200FB1D1A70FB1D1B78D3
:1010B8007F2B09D8FB1D1B781A001F231A40044BED
:1010C800012191400A001A60C046BD4602B080BDA9
:1010D80000E100E090B583B000AF02003960FB1D6D
:1010E8001A70FB1D1B787F2B28D82F4AFB1D1B78F5
:1010F8005BB29B08C0339B009B58FA1D1278110005
:1011080003220A40D200FF2191400A00D2431A402C
:1011180011003B689B01FF221A40FB1D1B78180039
:1011280003230340DB009A401F48FB1D1B785BB27A
:101138009B080A43C0339B001A5031E01B4AFB1D31
:101148001B7819000F230B40083B9B0806339B00B4
:10115800D31804331B68FA1D1278110003220A40C1
:10116800D200FF2191400A00D2431A4011003B6887
:101178009B01FF221A40FB1D1B7818000323034024
:10118800DB009A400948FB1D1B781C000F232340F5
:10119800083B9B080A4306339B00C31804331A60B4
:1011A800C046BD4603B090BD00E100E000ED00E0A0
:1011B80080B582B000AF78607B685A1E80235B04DC
:1011C8009A4201D3012310E00A4B7A68013A5A6027
:1011D80001235B4203211800FFF77CFF054B002227
:1011E8009A60044B07221A6000231800BD4602B01B
:1011F80080BDC04610E000E080B584B000AFB960A3
:101208007A600F217B18021C1A70BA687B181B7849
:101218005BB211001800FFF75DFFC046BD4604B081
:1012280080BD80B582B000AF0200FB1D1A70FB1DA7
:101238001B785BB21800FFF733FFC046BD4602B00B
:1012480080BD80B582B000AF78607B681800FFF77A
:10125800AFFF03001800BD4602B080BD80B586B060
:1012680000AF7860396000237B6147E13B681B6809
:1012780001217A6991400A001340FB60FB68002B4A
:1012880000D138E13B685B6803221340012B05D08D
:101298003B685B6803221340022B30D17B689B6854
:1012A8003B617B695B0003229A401300DA433B6988
:1012B80013403B613B68DA687B695B009A40130026
:1012C8003A6913433B617B683A699A607B685B685B
:1012D8003B6101227B699A401300DA433B69134062
:1012E8003B613B685B681B0901221A407B699A4095
:1012F80013003A6913433B617B683A695A603B685B
:101308005B6803221340032B17D07B68DB683B61C3
:101318007B695B0003229A401300DA433B69134060
:101328003B613B689A687B695B009A4013003A69A5
:1013380013433B617B683A69DA603B685B68032268
:101348001340022B23D17B69DA087B6808329200AC
:10135800D3583B617B69072213409B000F229A40B8
:101368001300DA433B6913403B613B681A697B69A8
:1013780007210B409B009A4013003A6913433B61D5
:101388007B69DA087B68083292003969D1507B683A
:101398001B683B617B695B0003229A401300DA43B8
:1013A8003B6913403B613B685B6803221A407B69D9
:1013B8005B009A4013003A6913433B617B683A69C2
:1013C8001A603B685A68C0239B02134000D192E020
:1013D800504A7B699B0818339B009B583B617B698B
:1013E80003221340DB000F229A401300DA433B69C3
:1013F80013403B617A68A023DB059A4213D07B68CF
:10140800454A93420DD07B68444A934207D07B6893
:10141800434A934201D1032306E0052304E0022353
:1014280002E0012300E000237A6903210A40D20088
:1014380093403A6913433B6136497B699B081833EB
:101448009B003A695A50334B1B683B61FB68DA438F
:101458003B6913403B613B685A6880235B03134038
:1014680003D03A69FB6813433B612A4B3A691A6017
:10147800284B5B683B61FB68DA433B6913403B617F
:101488003B685A6880239B03134003D03A69FB6882
:1014980013433B611F4B3A695A601E4A8423D35851
:1014A8003B61FB68DA433B6913403B613B685A6820
:1014B80080239B02134003D03A69FB6813433B61C6
:1014C800144984223B698B50124A8023D3583B61CC
:1014D800FB68DA433B6913403B613B685A688023E9
:1014E8005B02134003D03A69FB6813433B61094927
:1014F80080223B698B507B6901337B613B681A68AA
:101508007B69DA40131E00D0B0E6C046C046BD462F
:1015180006B080BD001802400004005000080050CA
:10152800000C005080B584B000AF78600A00BB1C86
:101538001A807B681B69BA1C1288134004D00F23D9
:10154800FB1801221A7003E00F23FB1800221A70FF
:101558000F23FB181B781800BD4604B080BD80B56A
:1015680082B000AF786008001100BB1C021C1A8012
:101578007B1C0A1C1A707B1C1B78002B04D0BB1C1C
:101588001A887B689A6103E0BB1C1A887B689A6298
:10159800C046BD4602B080BD80B584B000AF78605B
:1015A8000A00BB1C1A807B685B69FB60BB1C1B883C
:1015B800FA6813401A04FB68DB43B91C09880B401E
:1015C8001A437B689A61C046BD4604B080BD0000DE
:1015D80080B584B000AF7860194B1B68194A134076
:1015E8001900174B7A680A431A607A6880239B00AF
:1015F8009A421FD1144B1A6813005B009B185B00BA
:1016080012491800FEF778FD03000133FB6008E07B
:10161800FB68002B03D0FB68013BFB6001E0032360
:1016280009E0074B5A698023DB001A408023DB005E
:101638009A42EDD000231800BD4604B080BDC046D4
:1016480000700040FFF9FFFF0000002040420F003B
:1016580080B588B000AF78607B68002B01D101238A
:10166800F3E27B681B680122134000D17CE0C34B86
:101678009B6838221340BB61C04BDB6803221340D0
:101688007B61BB69102B02D17B69032B02D0BB693C
:10169800082B0BD1B94B1A6880239B02134062D0E8
:1016A8007B685B68002B5ED10123CEE27B685A68B9
:1016B80080235B029A4207D1B04B1A68AF4B802156
:1016C80049020A431A6020E07B685A68A023DB02BB
:1016D8009A420ED1A94B1A68A84B8021C9020A4325
:1016E8001A60A64B1A68A54B802149020A431A6062
:1016F8000BE0A24B1A68A14BA1490A401A609F4B04
:101708001A689E4B9F490A401A607B685B68002BE9
:1017180014D0FFF797FC03003B6108E0FFF792FC49
:1017280002003B69D31A642B01D903238DE2934B42
:101738001A6880239B021340F0D015E0FFF782FC63
:1017480003003B6108E0FFF77DFC02003B69D31A08
:10175800642B01D9032378E2884B1A6880239B0203
:101768001340F0D100E0C0467B681B68022213409A
:1017780000D199E0814B9B6838221340BB617F4BB5
:10178800DB68032213407B61BB69102B02D17B69A4
:10179800022B02D0BB69002B35D1784B1A68802305
:1017A800DB00134005D07B68DB68002B01D10123E7
:1017B8004BE2724B5B68744A134019007B685B69A3
:1017C8001A026E4B0A435A60BB69002B12D16B4B4D
:1017D8001B686E4A134019007B681A69674B0A43F5
:1017E8001A60664B1B68DB0A07221340684ADA4016
:1017F800684B1A60684B1B681800FFF7C7FB031E8D
:1018080051D0012321E27B68DB68002B30D05B4B91
:101818001B685E4A134019007B681A69574B0A43D4
:101828001A60564B1A68554B802149000A431A60C2
:10183800FFF708FC03003B6108E0FFF703FC020028
:101848003B69D31A022B01D90323FEE14B4B1A68DB
:101858008023DB001340F0D0484B5B684A4A1340B2
:1018680019007B685B691A02444B0A435A601BE003
:10187800424B1A68414B49490A401A60FFF7E2FB9C
:1018880003003B6108E0FFF7DDFB02003B69D31A68
:10189800022B01D90323D8E1384B1A688023DB00D7
:1018A8001340F0D100E0C0467B681B680822134053
:1018B80047D0324B9B6838221340182B0AD12F4B44
:1018C8001B6E022213403CD07B689B69002B38D1E9
:1018D8000123BAE17B689B69002B19D0274B1A6E4C
:1018E800264B01210A431A66FFF7ACFB03003B6154
:1018F80008E0FFF7A7FB02003B69D31A022B01D9C6
:101908000323A2E11D4B1B6E02221340F1D018E005
:101918001A4B1A6E194B01218A431A66FFF792FB7C
:1019280003003B6108E0FFF78DFB02003B69D31A17
:10193800022B01D9032388E1104B1B6E02221340AE
:10194800F1D17B681B680422134000D1C6E01F2335
:10195800FB1800221A70094B9B6838221340202B71
:101968001ED1064BDB6D0222134000D1B6E07B6826
:101978009B68002B00D0B1E0012366E10010024013
:10198800FFFFFEFFFFFFFBFFFF80FFFFFFC7FFFF1B
:101998000024F4000000002004000020FFFEFFFFE8
:1019A800AC4BDA6B80235B05134001D1012300E0C7
:1019B8000023002B11D0A74BDA6BA64B80214905D9
:1019C8000A43DA63A34BDA6B80235B051340FB60A1
:1019D800FB681F23FB1801221A709F4B1A6880238B
:1019E8005B0013401AD19C4B1A689B4B802149001D
:1019F8000A431A60FFF726FB03003B6108E0FFF784
:101A080021FB02003B69D31A022B01D903231CE1F5
:101A1800914B1A6880235B001340F0D07B689B6869
:101A2800012B06D18B4BDA6D8A4B01210A43DA650B
:101A38001CE07B689B68052B0CD1864BDA6D854BC7
:101A480004210A43DA65834BDA6D824B01210A438C
:101A5800DA650BE07F4BDA6D7E4B01218A43DA654C
:101A68007C4BDA6D7B4B04218A43DA657B689B6883
:101A7800002B14D0FFF7E6FA03003B6109E0FFF7FB
:101A8800E1FA02003B69D31A744A934201D903234D
:101A9800DBE0704BDB6D02221340F0D013E0FFF760
:101AA800D1FA03003B6109E0FFF7CCFA02003B6979
:101AB800D31A6A4A934201D90323C6E0654BDB6D0A
:101AC80002221340F0D11F23FB181B78012B05D1EC
:101AD800604BDA6B5F4B62490A40DA637B68DB690B
:101AE800002B00D1B0E05B4B9B6838221340102BD1
:101AF80000D178E07B68DB69022B53D1554B1A681B
:101B0800544B58490A401A60FFF79CFA03003B619E
:101B180008E0FFF797FA02003B69D31A022B01D9B4
:101B2800032392E04B4B1A6880239B041340F0D1A7
:101B3800484BDB684C4A134019007B681A6A7B687B
:101B48005B6A1A437B689B6A1B021A437B68DB6AE1
:101B58001A437B681B6B1A433E4B0A43DA603D4BC2
:101B68001A683C4B802149040A431A60394BDA68E9
:101B7800384B802149050A43DA60FFF763FA03000E
:101B88003B6108E0FFF75EFA02003B69D31A022BBB
:101B980001D9032359E02F4B1A6880239B04134073
:101BA800F0D051E02B4B1A682A4B2E490A401A6094
:101BB800FFF748FA03003B6108E0FFF743FA020029
:101BC8003B69D31A022B01D903233EE0214B1A6843
:101BD80080239B041340F0D11E4BDA681D4B234928
:101BE8000A40DA6030E07B68DB69012B01D1012310
:101BF8002BE0184BDB687B617B6903221A407B680A
:101C08001B6A9A421ED17B6970221A407B685B6A04
:101C18009A4217D17A69FE23DB011A407B689B6AD6
:101C28001B029A420ED17A69F8239B031A407B68FB
:101C3800DB6A9A4206D17B695B0F5A077B681B6B8C
:101C48009A4201D0012300E000231800BD4608B0E5
:101C580080BDC0460010024000700040881300009C
:101C6800FFFFFFEFFFFFFFFE8C80C11FFCFFFEEFB1
:101C780080B584B000AF786039607B68002B01D1F3
:101C88000123E9E0764B1B68072213403A689A4221
:101C98001ED9734B1B68072293431900704B3A688F
:101CA8000A431A60FFF7CEF90300FB6009E0FFF76B
:101CB800C9F90200FB68D31A6A4A934201D903237F
:101CC800CAE0674B1B68072213403A689A42EED174
:101CD8007B681B680222134015D07B681B680422AE
:101CE800134006D0604B9A685F4BE021C9010A4354
:101CF8009A605D4B9B685D4A134019007B689A683F
:101D0800594B0A439A607B681B680122134057D0DD
:101D18007B685B68012B07D1534B1A6880239B02B1
:101D280013402BD1012397E07B685B68022B07D116
:101D38004D4B1A6880239B0413401FD101238BE06D
:101D48007B685B68002B07D1474B1A688023DB0050
:101D5800134013D101237FE07B685B68032B06D116
:101D6800414B1B6E0222134008D1012374E03E4B05
:101D7800DB6D0222134001D101236DE03A4B9B68D1
:101D88000722934319007B685A68374B0A439A60C5
:101D9800FFF758F90300FB6009E0FFF753F9020069
:101DA800FB68D31A2F4A934201D9032354E02E4BE0
:101DB8009B6838221A407B685B68DB009A42ECD14A
:101DC800274B1B68072213403A689A421ED2244BBD
:101DD8001B68072293431900214B3A680A431A608B
:101DE800FFF730F90300FB6009E0FFF72BF9020069
:101DF800FB68D31A1B4A934201D903232CE0184BE2
:101E08001B68072213403A689A42EED17B681B6828
:101E18000422134009D0144B9B68154A134019003B
:101E28007B68DA68104B0A439A6000F029F80100D1
:101E38000D4B9B681B0A0F221A400E4B9200D35879
:101E48001F2213400A00DA400B4B1A600B4B1B6829
:101E58001800FFF79BF803001800BD4604B080BDCA
:101E6800002002408813000000100240FFF0FFFF2E
:101E7800FF8FFFFF9C2800080000002004000020BE
:101E880080B586B000AF3C4B9B68382213400FD119
:101E9800394B1B68DB0A0722134001229A401300C2
:101EA8003B6039683548FEF727F903003B615DE080
:101EB800314B9B6838221340082B02D1304B3B61D1
:101EC80054E02D4B9B6838221340102B38D12A4BF5
:101ED800DB6803221340FB60274BDB681B090722E2
:101EE80013400133BB60FB68032B0DD1B96824484C
:101EF800FEF702F9030019001F4BDB681B0A7F225B
:101F080013404B437B610DE0B9681C48FEF7F4F8B9
:101F180003001900184BDB681B0A7F2213404B4350
:101F28007B61C046144BDB685B0F0722134001330B
:101F38007B6079687869FEF7DFF803003B6115E09C
:101F48000D4B9B6838221340202B03D180231B02A2
:101F58003B610BE0084B9B6838221340182B03D1D8
:101F6800FA23DB013B6101E000233B613B69180078
:101F7800BD4606B080BDC046001002400024F400F3
:101F880000127A0080B582B000AF78607B68002BC1
:101F980001D101234AE07B683D229B5CDBB2002B28
:101FA80007D17B683C22002199547B681800FEF712
:101FB8005FFF7B683D22022199547B681A687B6821
:101FC80004331900100000F0ABFA7B6848220121A5
:101FD80099547B683E22012199547B683F22012154
:101FE80099547B684022012199547B684122012140
:101FF80099547B684222012199547B68432201212C
:1020080099547B684422012199547B684522012117
:1020180099547B684622012199547B684722012103
:1020280099547B683D220121995400231800BD462C
:1020380002B080BD80B584B000AF78607B683D2277
:102048009B5CDBB2012B01D0012337E07B683D228A
:10205800022199547B681B68DA687B681B68012138
:102068000A43DA607B681B68164A934204D07B688F
:102078001B68154A934216D17B681B689B68134AF4
:102088001340FB60FB68062B16D0FA6880235B02BE
:102098009A4211D07B681B681A687B681B6801210B
:1020A8000A431A6008E07B681B681A687B681B682B
:1020B80001210A431A6000E0C04600231800BD460B
:1020C80004B080BD002C014000040040070001005E
:1020D80080B582B000AF78607B681B681B690222FC
:1020E8001340022B24D17B681B68DB680222134053
:1020F800022B1DD17B681B68032252421A617B6840
:1021080001221A777B681B689B690322134004D05D
:102118007B68180000F0ECF907E07B68180000F015
:10212800DFF97B68180000F0EBF97B6800221A776A
:102138007B681B681B6904221340042B25D17B682C
:102148001B68DB6804221340042B1ED17B681B68C4
:10215800052252421A617B6802221A777B681B6843
:102168009A69C0239B00134004D07B68180000F0D4
:10217800BFF907E07B68180000F0B2F97B68180027
:1021880000F0BEF97B6800221A777B681B681B6920
:1021980008221340082B24D17B681B68DB680822BF
:1021A8001340082B1DD17B681B68092252421A6113
:1021B8007B6804221A777B681B68DB69032213405B
:1021C80004D07B68180000F093F907E07B681800DA
:1021D80000F086F97B68180000F092F97B6800220D
:1021E8001A777B681B681B6910221340102B25D1B6
:1021F8007B681B68DB6810221340102B1ED17B689C
:102208001B68112252421A617B6808221A777B6880
:102218001B68DA69C0239B00134004D07B68180050
:1022280000F066F907E07B68180000F059F97B6850
:10223800180000F065F97B6800221A777B681B6834
:102248001B6901221340012B0FD17B681B68DB68D7
:1022580001221340012B08D17B681B6802225242DD
:102268001A617B681800FEF707FA7B681B681B6910
:1022780080221340802B0FD17B681B68DB6880228B
:102288001340802B08D17B681B68812252421A6157
:102298007B68180000F0B6FA7B681B681A6980230F
:1022A8005B001A4080235B009A420ED17B681B6852
:1022B800DB6880221340802B07D17B681B681C4A8F
:1022C8001A617B68180000F0A5FA7B681B681B6917
:1022D80040221340402B0FD17B681B68DB684022EB
:1022E8001340402B08D17B681B68412252421A6177
:1022F8007B68180000F00CF97B681B681B692022BA
:102308001340202B0FD17B681B68DB682022134009
:10231800202B08D17B681B68212252421A617B68F6
:10232800180000F067FAC046BD4602B080BDC0463E
:10233800FFFEFFFF80B584B000AF786039600F23DF
:10234800FB1800221A707B683C229B5C012B01D190
:102358000223BCE07B683C22012199547B683D2222
:10236800022199547B681B689B68BB60BB685A4A0A
:102378001340BB60BB68594A1340BB607B681B684D
:10238800BA689A603B681B6880229201934240D0E9
:1023980080229201934200D988E080225201934220
:1023A80000D188E080225201934200D97EE0702B50
:1023B80018D000D97AE0602B4FD000D976E0502BA6
:1023C8003BD000D972E0402B57D000D96EE0302BBB
:1023D80063D06BD8202B60D068D8002B5DD0102B31
:1023E8005BD063E07B6818683B6899683B685A680B
:1023F8003B68DB6800F07CF97B681B689B68BB6006
:10240800BB6877221343BB607B681B68BA689A6015
:1024180052E07B6818683B6899683B685A683B6873
:10242800DB6800F065F97B681B689A687B681B6845
:102438008021C9010A439A603EE07B6818683B68BE
:1024480059683B68DB681A0000F0D6F87B681B689F
:102458005021180000F030F92EE07B6818683B68BE
:1024680059683B68DB681A0000F0F4F87B681B6861
:102478006021180000F020F91EE07B6818683B68AE
:1024880059683B68DB681A0000F0B6F87B681B687F
:102498004021180000F010F90EE07B681A683B68CC
:1024A8001B681900100000F007F905E00F23FB185E
:1024B80001221A7000E0C0467B683D220121995430
:1024C8007B683C22002199540F23FB181B781800C5
:1024D800BD4604B080BDC04688FFCEFFFF00FFFFA9
:1024E80080B582B000AF7860C046BD4602B080BDFE
:1024F80080B582B000AF7860C046BD4602B080BDEE
:1025080080B582B000AF7860C046BD4602B080BDDD
:1025180080B582B000AF7860C046BD4602B080BDCD
:1025280080B584B000AF786039607B681B68FB6059
:102538007B682B4A934203D07B682A4A934208D18E
:10254800FB6870229343FB603B685B68FA6813433F
:10255800FB607B68224A93420FD07B68214A9342F2
:102568000BD07B68204A934207D07B681F4A93426E
:1025780003D07B681E4A934208D1FB681D4A13406A
:10258800FB603B68DB68FA681343FB60FB688022EA
:1025980093431A003B685B691343FB607B68FA68E6
:1025A8001A603B689A687B68DA623B681A687B68DD
:1025B8009A627B680A4A934207D07B680B4A934227
:1025C80003D07B680A4A934203D13B681A697B6847
:1025D8001A637B6801225A61C046BD4604B080BDBB
:1025E800002C01400004004000200040004401404D
:1025F80000480140FFFCFFFF80B586B000AFF860DF
:10260800B9607A60FB681B6A7B61FB681B6A012200
:1026180093431A00FB681A62FB689B693B613B693C
:10262800F02293433B617B681B013A6913433B618A
:102638007B690A2293437B617A69BB6813437B6198
:10264800FB683A699A61FB687A691A62C046BD46B6
:1026580006B080BD80B586B000AFF860B9607A601A
:10266800FB681B6A102293431A00FB681A62FB6816
:102678009B697B61FB681B6A3B617B690D4A134060
:102688007B617B681B037A6913437B613B69A022EA
:1026980093433B61BB681B013A6913433B61FB6889
:1026A8007A699A61FB683A691A62C046BD4606B003
:1026B80080BDC046FF0FFFFF80B584B000AF7860D3
:1026C80039607B689B68FB60FB68084A1340FB60C5
:1026D8003A68FB68134307221343FB607B68FA6878
:1026E8009A60C046BD4604B080BDC0468FFFCFFF8C
:1026F80080B586B000AFF860B9607A603B60FB686F
:102708009B687B617B69094A13407B613B681A02BD
:102718007B681A43BB6813437A6913437B61FB6880
:102728007A699A60C046BD4606B080BDFF00FFFFCB
:1027380080B584B000AF786039607B683C229B5CD0
:10274800012B01D102234AE07B683C2201219954E4
:102758007B683D22022199547B681B685B68FB609B
:102768007B681B689B68BB607B681B681E4A93423A
:1027780008D1FB681D4A1340FB603B685B68FA6838
:102788001343FB60FB6870229343FB603B681B6844
:10279800FA681343FB607B681B68FA685A607B68B9
:1027A8001B68114A934204D07B681B68104A934205
:1027B8000CD1BB6880229343BB603B689B68BA68B6
:1027C8001343BB607B681B68BA689A607B683D22CC
:1027D800012199547B683C22002199540023180058
:1027E800BD4604B080BDC046002C0140FFFF0FFF6E
:1027F8000004004080B582B000AF7860C046BD4696
:1028080002B080BD80B582B000AF7860C046BD46DA
:1028180002B080BD80B582B000AF7860C046BD46CA
:1028280002B080BD70B500260C4D0D4C641BA41081
:10283800A64209D1002600F021F80A4D0A4C641B73
:10284800A410A64205D170BDB300EB5898470136D5
:10285800EEE7B300EB5898470136F2E7DC280008AA
:10286800DC280008DC280008E0280008030082189B
:10287800934200D1704719700133F9E7F8B5C046A3
:10288800F8BC08BC9E467047F8B5C046F8BC08BC02
:042898009E467047A1
:10289C00000000000000000000000000000000002C
:1028AC00000000000000000000000000000000001C
:1028BC000100000002000000030000000400000002
:1028CC0006000000070000000800000009000000DE
:0428DC00E10000080F
:0428E000B900000833
:0C28E4000024F4000400000001000000CB
:0400000508000F01DF
:00000001FF
